:020000040800F2
:1000000020BD012029020008070800085907000840
:1000100005080008830300080D3A000800000000EE
:10002000000000000000000000000000E9080008D7
:10003000850300080000000091080008C1090008BD
:10004000430200084302000843020008430200087C
:10005000430200084302000843020008430200086C
:10006000430200084302000843020008430200085C
:10007000430200084302000843020008430200084C
:10008000430200084302000843020008430200083C
:10009000430200084302000843020008430200082C
:1000A000430200084302000843020008430200081C
:1000B000430200082D0A000843020008430200081A
:1000C00043020008430200084302000843020008FC
:1000D00043020008430200084302000843020008EC
:1000E00043020008430200084302000843020008DC
:1000F00043020008430200084302000843020008CC
:1001000043020008430200084302000843020008BB
:1001100043020008430200084302000843020008AB
:10012000430200084302000843020008430200089B
:10013000430200084302000843020008430200088B
:100140004302000843020008430200088508000833
:10015000430200084302000843020008430200086B
:10016000430200084302000843020008430200085B
:10017000430200084302000843020008430200084B
:10018000430200084302000800F002F800F03CF8C7
:100190000AA090E8000C82448344AAF10107DA45E2
:1001A00001D100F031F8AFF2090EBAE80F0013F0F8
:1001B000010F18BFFB1A43F001031847CC5600008B
:1001C000EC560000103A24BF78C878C1FAD852071C
:1001D00024BF30C830C144BF04680C6070470000C1
:1001E0000023002400250026103A28BF78C1FBD840
:1001F000520728BF30C148BF0B6070471FB505F0DC
:1002000026F91FBD10B510BD00F082F81146FFF7AA
:10021000F5FF04F04FFE00F0A0F803B4FFF7F2FF83
:1002200003BC00F0A7F800000948804709480047D0
:10023000FEE7FEE7FEE7FEE7FEE7FEE7FEE7FEE796
:10024000FEE7FEE704480549054A064B70470000F3
:10025000D10900088901000820B7012020BD012034
:1002600020B9012020B9012002F0FF0343EA032254
:1002700042EA024200F005B87047704770474FF0FD
:1002800000020429C0F0128010F0030C00F01B8063
:10029000CCF1040CBCF1020F18BF00F8012BA8BF71
:1002A00020F8022BA1EB0C0100F00DB85FEAC17C35
:1002B00024BF00F8012B00F8012B48BF00F8012BE8
:1002C00070474FF0000200B5134694469646203919
:1002D00022BFA0E80C50A0E80C50B1F12001BFF4FF
:1002E000F7AF090728BFA0E80C5048BF0CC05DF865
:1002F00004EB890028BF40F8042B08BF704748BFB3
:1003000020F8022B11F0804F18BF00F8012B704726
:10031000754600F02BF8AE4605006946534620F0BE
:100320000700854618B020B5FFF78CFFBDE82040D8
:100330004FF000064FF000074FF000084FF0000BA1
:1003400021F00701AC46ACE8C009ACE8C009ACE854
:10035000C009ACE8C0098D46704710B50446AFF33C
:1003600000802046BDE81040FFF757BF00487047A7
:10037000BCB6012001491820ABBEFEE726000200F2
:100380007047FEE7704700000149086070470000B1
:100390000C3C024070B506460025002905D0012915
:1003A00027D0022928D04FF4407500F0D1F8092851
:1003B0001ED1134C206820F4407020602068284330
:1003C0002060206820F0F8002060206846F00201DC
:1003D00008432060206840F48030206000F0B8F8C6
:1003E000216821F002012160216821F0F8012160DB
:1003F00070BD4FF48075D8E74FF40075D5E7000065
:10040000103C024009200D490A68D20301D50120A1
:1004100070470A68D20601D5062070470A68D205DF
:1004200001D5022070470A6812F0EF0F01D00720B3
:10043000704709688907FBD5082070470C3C0240CB
:1004400070B500F0E9F80446084D08E002212046A6
:10045000FFF7A0FF092801D0012070BD083428460D
:1004600000F0DAF8A042F1D2002070BDFFFF0708CB
:1004700010B5F320FFF788FFBDE8104000F030B85A
:1004800010B500F053F8BDE81040F320FFF77CBF33
:100490002DE9F04105460E4617460024DFF83C8062
:1004A00015E056F82410286800F022F8092802D038
:1004B0000120BDE8F081286856F8241000688842C1
:1004C00001D00220F5E72868001D2860641CBC42AA
:1004D00002D228684045E4D90020EAE7FBFF07087C
:1004E0000248016841F0004101607047103C024041
:1004F00070B505460E4600F02BF8092813D10A4CBA
:10050000206820F440702060206840F40070206073
:10051000206840F0010020602E6000F019F821688A
:1005200021F00101216070BD103C024005480068C7
:10053000002805DA034804490C38016003490160CA
:1005400070470000103C024023016745AB89EFCDA6
:1005500008B509200090FFF755FF009002E0FFF773
:1005600051FF00909DF800000128F8D09DF8000090
:1005700008BD2DE9F041002201274FF0030C07FAD6
:1005800002F50B682B40AB422CD1066853000CFAE5
:1005900003F4A64306600E79D0F800809E4046EA38
:1005A000080606600E79012E01D0022E12D186684F
:1005B000A64386604E79D0F808809E4046EA080639
:1005C00086604668AE43466045688E799640B6B20E
:1005D00035434560C568A543C560CC799C40C36878
:1005E0001C43C460521C102AC9D3BDE8F08110B569
:1005F0004B07DB0E9A40C90800EB8100016A0F240B
:100600009C40A1430162016A1143016210BD418314
:1006100070470183704700001C49884201D20020C6
:1006200070471B49884201D2082070471949884207
:1006300001D2102070471849884201D21820704713
:100640001649884201D2202070471549884201D2BC
:10065000282070471349884201D230207047124940
:10066000884201D2382070471049884201D2402088
:1006700070470F49884201D2482070470D4988428F
:1006800001D25020704758207047000000400008F9
:100690000080000800C000080000010800000208F7
:1006A00000000408000006080000080800000A080E
:1006B00000000C0800000E084069806880B2704796
:1006C000D0F8CC000068C0F341407047084490F86F
:1006D0009B03704700EB8100D0F85003704710B5C2
:1006E000044600220023C4F8103304EB8200C0F853
:1006F0001433C0F85033A01880F88C33521CD2B297
:100700000F2AF2D30820A4F8B203204602F0AEF973
:10071000204601F035FF204601F059FE0121204618
:1007200002F004FA204601F0A4FE204601F062FF28
:10073000002010BDD0F81003704710B502F07DF90D
:10074000002010BD0022431883F89B2300EB4113C7
:10075000C3F8C02302F0AAB8FEE7000010B50021DC
:10076000064800F07EF90021022000F0AFF80021D9
:10077000BDE81040802000F09BB80000000400405D
:10078000002102680E4B1A40B2F1005F16D172B61A
:1007900000234FF0E02213615361936153178A00E5
:1007A00002F1E022C2F88031C2F88032491C0829E7
:1007B000F5D34168006880F3088808477047000057
:1007C0000000FE2F7CB50121082000F063F84FF4F3
:1007D000E044009401208DF8040000228DF80620EA
:1007E00003228DF805208DF80700054D694628463F
:1007F000FFF7BFFE21462846FFF70BFF7CBD000038
:10080000000C0240FEE7704730B50F23C278012587
:100810000178002A1FD0154A126802F4E062C2F57E
:10082000E062C2F30722C2F10404D3404278A2403E
:1008300084781C401443220101F1E02181F8002456
:10084000007800F01F018D404009800000F1E02099
:10085000C0F8005130BD01F01F00854048098000FC
:1008600000F1E020C0F8805130BD00000CED00E048
:100870000249084302490860704700000000FA0579
:100880000CED00E0014801F067BA000058010020BB
:1008900070470000054A002903D011680143116028
:1008A0007047116881431160704700003038024082
:1008B000054A002903D0116801431160704711688F
:1008C000814311607047000034380240054A002916
:1008D00003D01168014311607047116881431160B2
:1008E0007047000040380240704700000CB50022FD
:1008F000019200922749086840F4803008604FF464
:10090000A043086800F4003000900198401C01905A
:10091000009810B901989842F3D10868800302D575
:100920000120009000E000920098012831D1194880
:100930004030026842F0805202601748026842F478
:10094000404202601348083002680260026842F4C4
:1009500000420260026842F4A0520260021F0F4B84
:1009600013600A6842F080720A600A689201FCD53E
:100970000B4A40F205711160016821F0030101602A
:10098000016841F0020101600168C1F3810102299F
:10099000FAD10CBD003802400070004008544007F6
:1009A000003C02404FF0E021042804D0086920F008
:1009B000040008617047086940F00400086170474E
:1009C00070470000014800687047000008000020E0
:1009D00010B51248016841F47001016010480168C7
:1009E00041F0010101600E4A0021083211600268E5
:1009F0000C4B1A400260031D0B4A1A60026822F475
:100A00008022026006480C300160FFF76FFF034947
:100A10004FF000608039086010BD000088ED00E0F4
:100A200000380240FFFFF6FE1030002410B5094CDC
:100A30000121204600F021F8002809D0064801686D
:100A4000491C01602046BDE81040012100F006B8B5
:100A500010BD00000004004008000020C9430182CE
:100A60007047002904D0018841F0010101807047DE
:100A7000018821F001010180704702460020138A9D
:100A80000B4092890A40002B02D0002A00D001209E
:100A9000704700002DE9F04FADF50F7D0020049068
:100AA00000244C4F019702AA03A94BA003F05AFC63
:100AB00020B101200DF50F7DBDE8F08F47480122E0
:100AC000016805A803F03CFD08B10220F2E7089890
:100AD00018B10898B0F5F02F04D905A803F08CFCE4
:100AE0000320E7E70898460A0898C0F30805DFF8EE
:100AF000F0804FF4804949464046FFF788FD4FF4A7
:100B0000805A51464046FFF782FD4FF4005B59463C
:100B10004046FFF77EFD3846FFF792FC20B105A85E
:100B200003F06AFC0420C5E749464046FFF76FFD25
:100B300051464046FFF76BFD59464046FFF767FDBB
:100B40004FF400771AE004AB3A46264905A803F0B3
:100B5000B0FD10B90498B84204D005A803F04CFCCD
:100B60000520A7E780221F4901A8FFF791FC20B1CB
:100B700005A803F041FC06209CE7641CB442E2D3C4
:100B8000FDB1FF2239461748FFF76EFB04AB2A463A
:100B9000144905A803F08DFD10B90498A84204D0AB
:100BA00005A803F029FC072084E7ED1CAA080D49DD
:100BB00001A8FFF76DFC20B105A803F01DFC08207B
:100BC00078E705A803F018FC074901200870002009
:100BD00070E7000000800008323A0000D0000020DA
:100BE000000C0240BCB401200100002070B5044696
:100BF0000D46204600F02CF9A0F57F42FF3A05D0C3
:100C000004EB400245F40041A2F88C15C0B270BD5F
:100C100070B50D46194600EB4114012384F8AE333C
:100C2000C4F8B853C4F8BC2394F8C423002A06D0EF
:100C3000022284F8B423FFF785FD002070BD002256
:100C400084F8B423F7E770B50D46194600EB41145C
:100C5000002384F8AE33C4F8B853C4F8BC2394F826
:100C6000C523002A06D0022284F8B423FFF76AFDC8
:100C7000002070BD84F8B433F8E730B402240C755A
:100C800001244C750024CC820A834C83150600EBAA
:100C9000431202D582F8C44301E082F8C543002321
:100CA00030BC1A4600F017B80121C0F8101300201C
:100CB000704770B50D46194600EB411404F56C748D
:100CC000012304F8023C02232371A560E260FFF7D0
:100CD00039FD002070BD70B50C4611461A4601253D
:100CE000E078012802D0022819D105E0204601F061
:100CF0007AFA0220E07012E0207F01210D2804D052
:100D00000B2807D00C2808D009E0E17000202077DC
:100D1000002504E0E170022501E0E170032528468A
:100D200070BD70B50D46194600EB4114002384F8E0
:100D3000AE33C4F8B853C4F8BC23002A02D1012250
:100D400084F8C52394F8C52332B1022284F8B42371
:100D5000FFF7F8FC002070BD84F8B433F8E710B555
:100D60000C46114600EB411303F56C73002203F8A7
:100D7000022C03221A719C600822DA60FFF7E2FC61
:100D8000C0B210BD0221002200EB4103A3F88C2564
:100D9000491CC9B20829F7D30020704770B5054631
:100DA0000C46002121706170A1700122E27022774F
:100DB0004020A07184F8201084F821202179284651
:100DC00000F021F86179284600F01DF8002070BD80
:100DD0000021C0F810130020704770B504460A25A2
:100DE00005290AD0042908D006290BD12570D4F88A
:100DF00080000068BDE870400047D4F88000406C77
:100E00008047257070BD082907D200EB4100B0F87B
:100E10008C15C1F30E01A0F88C150020704730B47A
:100E2000DDE9025442F080020A7506224A75CB823F
:100E30000322B2EB132F03D140F209420A8301E0EF
:100E400000220A834C8323462A4630BCFFF743BF67
:100E50000146002001EB4002B2F88C25120405D5B2
:100E6000401CC0B20828F5D34FF6FF7070470A88BF
:100E700003781A440A800178084470472DE9FC473A
:100E800006460F461546002406F58878CDE900850C
:100E90004FF40073002239463046FFF7C0FFB0F12F
:100EA000000913D10B4805E0311991F810110155D3
:100EB000641CA4B2AC42F7D3434607F1500207F1D9
:100EC0003E0107F13400009500F0C2FF4846BDE83E
:100ED000FC87000020B001202DE9FC410E4615469C
:100EE00000F588744FF4807300223146CDE9004547
:100EF000FFF795FF071E05D12A46214606F122007D
:100F000001F028F83846BDE8FC812DE9FC411E4679
:100F1000089D00F5887442F440730022CDE9004535
:100F2000FFF77DFF071E04D12A463146204601F017
:100F300060F83846BDE8FC812DE9F05F80460C463C
:100F400000270020A074207F0B2509260121DFF84F
:100F500000924FF0080B4FF0050A0C2813D2DFE87F
:100F600000F0F4061349526D7B959EC1D3E7627978
:100F700004F114014046FFF7F2FE4046FFF79CFBE8
:100F8000208202202077E0E061794046FFF79EFB57
:100F900001280CD0032829D04046FFF78DFB218A79
:100FA000401A3228EFD9257784F812B0CDE0207DA1
:100FB00000F08000618B59B141F28831A9F800102E
:100FC000802802D084F81CA009E00320207706E0E6
:100FD0003221A9F80010802806D00720207740464B
:100FE000FFF76AFB2082B0E02677F8E7257784F8E0
:100FF00012A0AAE02379A2894046A168FFF759FE12
:1010000004202077A1E021794046FFF75FFB01280B
:1010100000D1267704280CD003280DD04046FFF7D6
:101020004BFB218A401AB9F80010884200D9257775
:101030008BE06078207088E0257786E0607908EBA7
:10104000401080F8C5136379A2894046A168FFF774
:1010500068FE0620207778E061794046FFF736FB8E
:10106000012806D0042807D002280AD003280BD074
:101070006BE00720207768E0607820700C202077F4
:1010800063E084F81CA060E025775EE0002223790D
:1010900011464046FFF70DFE84F81CB055E021795B
:1010A0004046FFF713FB0646012E0CD0032E0FD04F
:1010B0004046FFF701FB218A401AB9F80010884228
:1010C00008D9257741E0607820700D2020773CE03A
:1010D00025773AE0042E38D1607820700420A0747F
:1010E000032732E0607908EB401090F8C51381F0D7
:1010F000010180F8C5130022637911464046FFF7CD
:1011000010FE0A20207720E061794046FFF7DEFAE2
:10111000012804D0022807D0032807D015E0607802
:1011200020700D20207710E026770EE025770CE068
:10113000A07B401CC0B2A073022801D8217704E034
:1011400084F812B06078207002273846BDE8F09F1E
:10115000500000202DE9F04192B007460C460126D0
:10116000A1780025FF204FF001080A2927D2DFE8E7
:1011700001F00527375B657992ABC4CE0822214682
:101180003846FFF7A9FE002819D194F82900A0716C
:101190003846FFF7D2FA84F80280A0790023CDE91F
:1011A000005061791A46384600F0BCFDA079002352
:1011B000CDE9005021791A46384600F0B3FDA7E08A
:1011C000122221463846FFF787FE0028F7D1D4F8CF
:1011D0008000C16904F1220088470220A07097E0D6
:1011E00001222146384600F0E6FF00281BD10220EC
:1011F00001F0E8F8A41C84F81E80D4F87E00006A90
:1012000080470320207000950195A27FA1780023DC
:10121000384600F087FD00950195A27FE178002314
:10122000384600F07FFD73E0092221463846FFF77B
:1012300025FE00286CD10420A07069E0E28E2146D2
:101240003846FFF71BFE002862D1D4F8800004F175
:10125000500204F13E01436A04F13400984705202E
:10126000A07055E094F8302006256AB1009002ABDA
:1012700021463846FFF749FE28BBD4F88000816A32
:1012800002A88847A57043E0D4F88000816A22A0B4
:101290008847A5703CE094F8312007256AB100909A
:1012A00002AB21463846FFF730FE60B9D4F8800023
:1012B000C16A02A88847A5702AE0D4F88000C16AF4
:1012C00015A08847A57023E094F8322008256AB15C
:1012D000009002AB21463846FFF717FEC0B9D4F89C
:1012E0008000016B02A88847A57011E0D4F8800047
:1012F000016B09A08847A5700AE094F839202146BF
:10130000384600F064FF18B90920A07000E00026FC
:1013100012B03046BDE8F0814E2F41002DE9F0417A
:101320000746069E884614461D46384601F020F8BA
:10133000002001F009F821463846FFF72FFD44F858
:101340007C5F666041463846FFF7C9F9606801680E
:1013500088473846BDE8F04100F0F8BF21220A7501
:10136000FF224A750022CA820A834A8300231A4652
:10137000FFF7B1BC70B5044601200C4D002A02D025
:10138000012A0BD105E02B78EA782046FFF775FC9F
:1013900004E06B78AA782046FFF76FFC044A1169D5
:1013A000491C1161042900D9042070BD60B20120DC
:1013B00058000020014900200870704750B20120F9
:1013C00070B5054601242846FFF7B4F9F8B1124874
:1013D00001782846FFF77EF90D2801D0022416E097
:1013E0000E480F4A0168914210D1A0F120024168D5
:1013F000526891420BD1007B20B1012807D002280E
:1014000002D004E0002402E0022400E002240348A9
:101410001030C473204670BD60B2012040B201207C
:10142000555342530A490A22012803D0022800D109
:101430000A707047074B1878401CC0B218700A2811
:1014400004D2062008700120C87070470A707047E7
:1014500050B201206C000020A1220A75FE224A75BC
:101460000022CA820A8301224A830123014AFFF72C
:1014700032BC000068B201202DE9F35F0E46012462
:101480000098FFF757F9002818D04F4DDFF83CA11E
:101490004F4F28784FF00008A3464FF008090B285B
:1014A0000CD2DFE800F0060C1A4754616E797E39E1
:1014B0008C00009800F0BCF985F800B080E031465F
:1014C0000098FFF74BFF0446022004B92870032C54
:1014D00076D168700920287072E031460098FFF7D5
:1014E000BBFF044620004FF0030107D19AF8080023
:1014F0008AF8480008B1787818B12970032C07D011
:101500005EE087F801B0D6F88000006C804757E0B5
:1015100069700920287053E07379002231460098E1
:10152000FFF7ABFB044620004AD18AF84880687870
:10153000287045E0009800F063FB10B1FFF772FFE0
:101540003EE00420287087F80080002438E00098EE
:1015500000F0B6FA10B1FFF765FF31E00520287002
:1015600087F8008000242BE0009800F0EDF910B11E
:10157000FFF758FF24E085F8009087F800800024EA
:101580001EE0009800F0ECFA10B1FFF74BFF17E0F7
:1015900068782870002413E03146009800F01AF8AB
:1015A0000EE0D6F88000C06B8047C0B210B10128B1
:1015B00003D005E085F8009002E0062400E0042452
:1015C0002046BDE8FC9F000050B2012060B201201F
:1015D0006C0000202DE9F35F0098FFF7ABF80028BE
:1015E00021D0904C052790482179904D00264FF04E
:1015F00008094FF0070B4FF002084FF0010A0929C4
:1016000011D2DFE801F01005123C71C0D5EBF600F5
:10161000844943781F2230390098FFF714FB84F87F
:1016200005A084F80480BDE8FC9F41780098FFF78E
:101630004DF8012808D002281ED00428F3D185F8DF
:1016400000A084F80490EEE72E6184F805807548C8
:101650003038017B01F08001806858B16860A06873
:10166000A860E860802902D004202071DBE7032015
:101670002071D8E72771D6E760792071D3E78046DB
:1016800001780098FFF722F80146012902D060791D
:10169000032822D02E6103206071B8F80420686806
:1016A00082420ED298F80030A9680098FFF7B0FA8D
:1016B000B8F804006968091A6960A9680844A86054
:1016C000B1E740B182B298F80030A9680098FFF7FE
:1016D0009FFA6E60A7E72771A5E70429A3D12E70B2
:1016E00084F804B067719EE7804641780098FEF761
:1016F000EDFF0146012909D002292BD0042992D1FE
:1017000085F800A084F8049067718CE72E610420AE
:101710006071B8F80620686882420FD298F80130EC
:10172000A9680098FFF78FFAA868E860B8F8061073
:101730000844A8606868401A686074E740B182B2E3
:1017400098F80130A9680098FFF77DFA6E606AE7A3
:10175000277168E7D5E9021081420AD0B8F806205F
:1017600098F80130009802B0891ABDE8F05FFFF7E1
:101770006ABA98F80130B8F80620009802B0BDE8BF
:10178000F05FFFF760BA677126491039A1603F2208
:10179000A2810D228E54521ED2B2002AFAD10E70AE
:1017A00003783F220098FFF733FA062020713AE7CA
:1017B00001780098FEF78AFF012805D0042889D116
:1017C0002E7084F804B02EE72E616771A078207027
:1017D000DDE90001FFF7F4FDE07324E7DDE9000136
:1017E0000022FFF7C7FD28B104288ED184F80F80AE
:1017F00019E708E02878022802D06079207112E702
:1018000084F804900FE7DDE900010122FFF7B2FD43
:1018100020B1042891D184F80F8004E76079207109
:1018200001E7000050B2012060B201205800002002
:1018300010B5FEF77FFF002148B10848064A026054
:10184000074A42604173054A01203032D070054892
:1018500001610548017010BD5553424320B201207B
:1018600050403020580000206C00002070B5064623
:101870000C4C00256178002907D0304600F042FF6B
:1018800061783046FFF7BFFA65702178002907D0EC
:10189000304600F037FF21783046FFF7B4FA257064
:1018A00070BD000060B201202DE9FC4106460C46E7
:1018B00094F84300082803D194F84500502806D036
:1018C000D4F88000006C80470020BDE8FC8194F8CB
:1018D00052101C4D080604D5E970B4F85400A880D5
:1018E00003E0A970B4F85400E88094F85A10080690
:1018F00004D5E970B4F85C00A88003E0A970B4F8DE
:101900005C00E880A9783046FFF770F96870E978E4
:101910003046FFF76BF92870E8880227CDE90070A0
:101920002034697863782278304600F069FAA88814
:10193000CDE90070637822782978304600F060FAAB
:10194000C2E7000060B2012070B50324FEF7F2FE8A
:1019500030B3214E214B0022F0780125012802D01E
:10196000022836D11DE01E493F248C608020087378
:101970000A208873B3600520B07010200B18DA734A
:10198000401EC0B20028F9D11A20C8734C74CC7420
:101990003571072030700320F0730220F0700324AB
:1019A00017E0F07B20B101280ED002280FD010E004
:1019B000987801060948A0F1100001D5057300E0F0
:1019C0000273F570002404E0F570012401E0F57065
:1019D0000224204670BD000050B20120BCB201209C
:1019E00020B201202DE9FF4F81B083460E461F46ED
:1019F000304C4FF0030884F800805846FEF79AFEFA
:101A0000C8B32D4A01254FF0020AD0784FF00009E3
:101A1000012802D0022849D12EE028498F60802079
:101A200008730A208873966010200B1883F80F90B3
:101A3000401EC0B20028F8D12820C8739DF80F00BE
:101A400048749DF80E0088749DF80D00C8749DF8C8
:101A50000C000875780A00909DF8010088759DF8C3
:101A60000000C87515710720107082F80F8082F889
:101A700003A084F8008019E0D07B164638B9584698
:101A8000FEF758FE18B1F57084F800900EE0F07B78
:101A9000012805D15846FEF74DFE08B1F57005E066
:101AA000F07B022802D1F57084F800A0207805B000
:101AB000BDE8F08F8000002050B2012020B201204C
:101AC00070B50324FEF736FE20B3224E01252248CE
:101AD000F178012902D002293AD11CE01F490822DD
:101AE0008A6080220A730A228A73B0600420B07070
:101AF000102000220B18DA73401EC0B20028F9D162
:101B00002520C8733571072030700320F073022040
:101B1000F07003241CE0F17B21B1012913D00229CC
:101B200014D015E00C4902781039CA7042788A70D6
:101B300082784A70C2780A7082794A72C0790872D3
:101B4000F570002404E0F570012401E0F570022432
:101B5000204670BD50B20120BCB2012020B201204D
:101B600070B50324FEF7E6FD38B3224E0125224A64
:101B7000F078012802D0022839D11FE01F493F2404
:101B80008C60802008730A208873B260B07870700F
:101B90000620B070102000220B18DA73401EC0B26D
:101BA0000028F9D10320C8730A74CC743571072159
:101BB0003170F0730220F070032418E0F07B20B144
:101BC00001280FD0022810D011E00B4811781038EE
:101BD000C1715178817191784171D1780171F5703D
:101BE000002404E0F570012401E0F5700224204691
:101BF00070BD000050B20120BCB2012020B2012013
:101C000070B50324FEF796FD10B31A4E0125F07847
:101C1000012802D002282BD11BE0174900228A603C
:101C20000A73062088731548B0603F20B0810324F2
:101C3000B47010200B18DA73401EC0B20028F9D11E
:101C4000CA73357107203070F4730220F0700324DA
:101C50000EE0F07B20B1012805D0022806D007E075
:101C6000F570002404E0F570012401E0F570022411
:101C7000204670BD50B2012020B2012040B20120A8
:101C8000FFB581B00F461D460324FEF753FD98B300
:101C9000224E0123F078012802D002283BD12CE00B
:101CA0001F4A9560002414730A209073B7601020B7
:101CB0001118CC73401EC0B20028F9D12A20D0736D
:101CC0009DF80F0050749DF80E0090749DF80D0063
:101CD000D0749DF80C001075680A00909DF8010002
:101CE00090759DF80000D075337107203070032087
:101CF000F0730220F07003240DE0F07B20B1012886
:101D000005D0022805D006E0F370002403E0F3704C
:101D100001E0F370022405B02046F0BD50B201206E
:101D200020B2012070B5059D00EB4114002A01D0BE
:101D300084F8AC23B4F8B223AA4202D00DB1A4F8BF
:101D4000B25394F8AF239A4202D00BB184F8AF3368
:101D500000F00AFD002070BD38B5054600240020C3
:101D60000090284600F03EFE002847D0284600F0AC
:101D700040FE0090009808B9002038BD0098C0F3DC
:101D8000C00018B1284601F017FE04430098C0F3C4
:101D9000001018B1284601F05CFD04430098C0F320
:101DA000401018B1284601F095FB04430098C0F399
:101DB000806018B1284601F0B5FC04430098C0F3D8
:101DC000406018B1284600F006FF04430098C0F3B5
:101DD000006018B1284601F015FC04430098C0F3D8
:101DE000407018B1284600F0BDFE04430098C0F3CF
:101DF000405018B1284600F0CBFE04432046BCE713
:101E00002DE9F041DDE9067600EB410595F88C45BA
:101E100004F07F0C00EB411404F56B7484F801C0EE
:101E200095F88C55C5F3C015A57022706771E680D2
:101E3000E370002222766276A4F56B74002B02D147
:101E4000012284F8B02300F08FFC0020BDE8F0816F
:101E50002DE9FF4F85B00746129991461C46187828
:101E60003870587878709878DA7800EB02207880AB
:101E7000187938715A797A719A79BA71DA79FA716E
:101E80001A7A3A7209295FD909210191DFF8C080D5
:101E900002284FD953E001A92046FEF7E8FF044687
:101EA0006078042846D194F90260069806EBC601D2
:101EB00001EB000BE07803283CD2214602A800F099
:101EC00085F800259DF80C00022833D82EE001A9E2
:101ED0002046FEF7CCFF04466078052826D109EBA2
:101EE000061000EBC50A98F80000B04206D088F84A
:101EF000006002A9584600F069F80BE0207961798A
:101F000000EB0120B8F80210884213D302A958460A
:101F100000F05CF82146504600F048F820796179DD
:101F200000EB0120A8F802006D1C6DB29DF80C00BA
:101F3000A842CCDC7888BDF804108842ABD80020D9
:101F4000A8F8020088F8000009B0BDE8F08F000092
:101F50005200002010B50B7803704B7843708B78DB
:101F6000CC7803EB042343800B7903714B794371E5
:101F70008B798371CB79C371082A16D90A7A4B7A87
:101F800002EB032202818A7ACB7A02EB032242819E
:101F90000A7B4B7B02EB032282818A7B8273CA7BA2
:101FA000C2730A7C0274497C417410BD0A780270C5
:101FB0004A7842708A788270CA78C2700A794B79FE
:101FC00002EB032282808979817170470A7802705E
:101FD0004A7842708A788270CA78C2700A7902712F
:101FE0004A7942718A798271CA79C271097A017219
:101FF000704710B54378032B11D103789C1E94428F
:1020000000DC9A1E93B2801C002204E0845C01F87C
:10201000014B921C92B29A42F8D30020087010BD76
:10202000FEB506460C46022502953046FEF782FBB9
:1020300020B9207810B1022800D025702078002720
:1020400004F120050B2847D2DFE800F006129D4678
:102050004764788654468D003046FEF76BFB0028B7
:102060003AD001202070BDE8FE40642000F0AAB9FB
:10207000D4F880008068804700213046FEF7B6FD26
:10208000607180213046FEF7B1FD20713046FEF7C9
:1020900054FB002820D1241DE06FC06880473046E3
:1020A000FEF70EFBC0B26077042104F8041CE16F58
:1020B00089698847A078CDE90070637F227F217805
:1020C0003046FFF79DFEA078CDE90070637F227F48
:1020D00061783046FFF794FEFEBD21463046FFF79B
:1020E00039F80028F8D1D4F88000406B80470820E8
:1020F0002070FEBDD4F88000806B80470128F8D1A5
:10210000E06F21460268304690470028F1D1052053
:102110002070FEBDE06F21468268304690470290F5
:102120009DF8080038B19DF8081003B02046BDE8BE
:10213000F040FEF752BE06202070FEBDE06F214643
:10214000C2683046904702909DF8081003B02046C0
:10215000BDE8F040FEF741BE03B021463046BDE881
:10216000F040FEF7E9BE21463046FEF717FED4F8F0
:10217000800040688047E06F2946426803B03046DF
:10218000BDE8F0401047D4F8800000698047214640
:102190003046FEF703FED4F8800040688047E06FC9
:1021A00029464268304690473046FEF7EBFD2770DF
:1021B000FEBD0020704730B400230B7505244C751C
:1021C000CA820B834B8330BC1A46FEF784BD30B401
:1021D00000230B7509244C75CA820B834B8330BCDA
:1021E0001A46FEF778BD03784370072303708160B9
:1021F0008281012101770020704700002DE9F04124
:1022000006460F46154601240F48FEF793FAA8B17B
:102210000E480078012811D16D022B463A4631460E
:102220000948FFF7DFFB044609490748FFF7D2F9E1
:102230000548FEF77FFA20B1032CEED02046BDE81A
:10224000F0810124FAE7000058010020CC000020B2
:10225000D400002010B50248FEF76CFAC0B210BDE1
:10226000580100202DE9F04106460F46154601248D
:102270000F48FEF75FFAA8B10E480078012811D187
:102280006D022B463A4631460948FFF7F9FC0446F1
:1022900009490748FFF79EF90548FEF74BFA20B1B8
:1022A000032CEED02046BDE8F0810124FAE70000BF
:1022B00058010020CC000020D4000020704700000E
:1022C0000149002008707047CC00002070470000D2
:1022D0004FF400510148FEF79AB90000000C02408B
:1022E00001490020087070470000002070477047C7
:1022F000704770474FF480510148FEF788B90000DD
:10230000000C024010B50020094C217800290CD0A7
:10231000012909D107490978012905D0FEF7BAFB3F
:10232000002801D00021217010BD0121217010BDB5
:10233000CC000020000000207047704770477047B5
:1023400070477047012070477047704708B54320B9
:102350008DF8000000208DF8010003208DF80200A8
:1023600001208DF803006846FEF74EFA08BD000014
:102370001CB501210846FEF78DFA01218020FEF7E9
:1023800097FA4FF4C050009002208DF8040000200E
:102390008DF8060003218DF805108DF80700084C14
:1023A00069462046FEF7E5F80A220B212046FEF793
:1023B0001EF90A220C212046FEF719F91CBD000067
:1023C0000000024080B201F04BBD01F063BD3EB59C
:1023D000044600250020029001900090217AE068D8
:1023E000012919D0C16841F040010291C160204625
:1023F00000F098F84FF434100190607A10B14FF467
:1024000074100190E168019888631420FFF7DAFFE7
:10241000E078012822D02AE0816B21F480310191FB
:10242000627A12B141F48011019101998163E068EF
:10243000C16821F0400121F4800121F4003121F430
:1024400000210291C160204600F06CF8E07801287C
:10245000DED12A200090E1688860D9E7E0688168D1
:1024600021F01E010A3141F02001009181602846CF
:102470003EBDFEB5044600270025002602960196C3
:1024800000962046FFF760FFD4F80C010660207A22
:10249000012810D00121204600F098FA204600F0D3
:1024A000CCFA6069016821F0040100910160E07AD2
:1024B000012805D018E00021204600F087FAEDE75A
:1024C000E16880204862ADF808006020ADF80A009D
:1024D000E26802999162E021ADF80410ADF80600BF
:1024E000E1680198C1F800011021204600F0CEF803
:1024F000204600F0ADF84FF0FF3107E004EB850017
:1025000050F8902F91600068C6606D1C2078A8423A
:10251000F4D80121204600F03BF8204600F072F884
:102520003846FEBDF8B5054600270024002000907F
:10253000124E0320FFF749FFE86800690090641C11
:10254000B44201D90020F8BD00980028F1DA00213A
:10255000009840F0010000900098EA681061E86877
:1025600002690092491CB14202D8009AD207F7D101
:102570000320FFF72AFF3846F8BD0000400D030096
:102580000022C068816821F0010181601046704717
:1025900038B504460D4629462046FFF7D6FE2046AC
:1025A00000F02CFA0090C10407D4012D05D140F4AD
:1025B00080500090D4F8CC1008600098C10406D573
:1025C0002DB920F480500090D4F8CC100860BDE8FC
:1025D0003840C820FFF7F6BEC2684FF0FF315160A7
:1025E000C2686FF0804151610149C06881617047E4
:1025F000000800800022C068816841F0010181600C
:102600001046704738B50446002500200090E16868
:102610008861E168401E48612046FFF7DDFFE078F1
:1026200008B910200090009840F0807040F00070D1
:1026300040F0005040F0080040F400100090E168C5
:102640008A698243009802438A61284638BD0000A7
:1026500038B50025002100220092009A42F01002B5
:102660000092009AC3681A61074BC268146900940B
:10267000491C994202D8009CE006F7D40320FFF7DA
:10268000A4FE284638BD0000400D030038B50025E3
:10269000002200230093009B43F020030093009B43
:1026A00061F38A1300930099C3681961074BC168ED
:1026B0000C690094521C9A4202D8009CA006F7D4E0
:1026C0000320FFF782FE284638BD0000400D0300BE
:1026D000C068406900F00100704710B50346002053
:1026E0004FF00042012464F3DC4203EB810151F816
:1026F000903F1A6109680A6842F0004222F0804265
:102700000A6010BD10B586B000230022039201922A
:1027100000EB8101D1F89020116841F0004141F0B7
:102720008041009111F4402F0BD0C1F38144022C61
:1027300007D0406900690190019810F47F0F0BD019
:102740000DE0C068C06A0390039810F47F0F06D1B3
:1027500021F00040009002E021F00040009000983D
:10276000106006B0184610BDFFB500260025029582
:10277000039501956A1E009200EB8104D4F8903015
:102780009A60C278012A01D10422039200EB41121F
:1027900092F8B13333B1012B3AD0022B02D0032B84
:1027A00046D120E0039B43F0010343F0020343F0D2
:1027B000080343F0800343F4806343F01003039362
:1027C00092F8AE731FB143F48073039330E043F08B
:1027D000200343F04003039392F8B07347B343F0F0
:1027E0002003039324E0039B43F0010343F0100311
:1027F00043F0080343F0800343F4806343F4007321
:10280000039392F8AE739FB143F4807303930FE088
:10281000039B43F0010343F4007343F0200303934D
:1028200092F8AE7327B143F0800343F480730393AF
:10283000D4F89070039BFB6001238B4041698F6942
:102840001F438F614FF000710291C068816941F0B0
:102850000071816192F8AC0360F39C5592F8AD036E
:1028600060F3CE2592F8AE0360F3CF35019592F870
:10287000AF0302280DD025F4003092F8B11361F3B4
:102880009340B2F8B22362F30A000190032903D007
:1028900005E045F40030F0E740F000500190D4F836
:1028A00090100198086004B03046F0BDF0B588B0D3
:1028B000054600264FF4807C002206920792009283
:1028C00005EB4114D4F8BC73002F0DD0B4F8B2332B
:1028D000F818401EB0FBF3F080B2604505D96046A1
:1028E0001B02C4F8BC3300E0012094F8AE3323B1DE
:1028F000B4F8B2334343C4F8BC33D4F8BC3363F305
:10290000120260F3DC4294F8B40360F35E72069244
:1029100005EB8103D3F890000261E878012804D127
:10292000D3F89020D4F8B803506153F8900F0268A0
:10293000284600F051F860F35D7242F0004020F04C
:10294000804007901A681060E878E0BB94F8AE0306
:10295000C8BBD4F8BC33B3B394F8B10330B1012889
:1029600015D0022802D0032823D110E0E868C26AFB
:102970000392DB1CC3F38F02039B9BB2934218D2DA
:1029800020220092826942F02002826111E068698F
:1029900000690190DB1CC3F38F00019A92B282425E
:1029A00007D24FF080600090E868826942F0806250
:1029B0008261B4F8BC030A4683B2D4F8B803014676
:1029C000284601F00FF808B03046F0BD40690268B3
:1029D00061F30102026070474069806840F30000C3
:1029E000401C704700B5FFF773FE012800D000209F
:1029F00000BDC0684169806908407047D0F8CC00CC
:102A0000006820F0040020F0020020F0080020F010
:102A10002000704740694069704710B50446084679
:102A20000021D21C9308D4F8D02003E0146840F8A9
:102A3000044B491C9942F9D310BD38B504462046D1
:102A4000FFF7DCFF40F48071009154F8CC0F016077
:102A50000A20FFF7B7FC009820F480702168086016
:102A60001420FFF7AFFC012038BD000070B5002234
:102A700000250024C470012383704026868001292C
:102A800001D061B114E04FF0A042C372082101707F
:102A9000042141709115C1800221017208E0224A8F
:102AA000C4720C210170062141704FF4A061C180F5
:102AB000C26002F50061016100210AE002EB4113EE
:102AC00000EB810403F51066A66103F530636365CE
:102AD000491C43788B42F1D802F580614161403155
:102AE000C0F8CC10002108E002EB411300EB810498
:102AF00003F5A063C4F89030491C03788B42F3D8E7
:102B0000002108E002EB013300EB810403F5805360
:102B1000C4F8D030491C03788B42F3D802F56062C8
:102B2000C0F80C21284670BD0000044038B50024D0
:102B3000C368D86820F0005020F08042009201293C
:102B400001D021B106E042F00050009002E042F0D6
:102B5000804000900098D8603220FFF733FC204678
:102B600038BD000038B504460020009007480068D2
:102B7000816820468847009820F0005000F10050FE
:102B800000900098E1684861012038BD4C000020A9
:102B90000CB50146D1F8900000680090009820F034
:102BA000004000F100400090009820F0804000F1CB
:102BB00080400090009AD1F89000026000200190BF
:102BC000019820F4001000F5001001900198CA68E7
:102BD000506101200CBD7CB5054600240026284626
:102BE000FFF718FF019000BF1BE0019880B20121A0
:102BF000A1400840A0B105F1900050F82400006801
:102C000000900098C0F3C03028B12146284600F05B
:102C10000DF8064304E02146284600F04FFA06432B
:102C2000641C2878A042E0D830467CBD70B586B0E0
:102C300005460C4605F1900050F82460B0680590F8
:102C4000F0680490DDE904100840059005F190005B
:102C500050F8240000680390002004900598C0F309
:102C60008000D0B100200190019820F00400001DE8
:102C700001900198B06005F1900050F82400C06800
:102C80000190019820F00200801C019005F1900055
:102C900050F824000199C160A1E00598C0F34010EC
:102CA00048B100200190019820F0200020300190D0
:102CB0000198B06093E00598C0F3C00078B305F1C7
:102CC000900050F82400C0680190019820F00200A4
:102CD000801C019005F1900050F824000199C1601A
:102CE000052105F56370015500200190019820F041
:102CF0001000103001900198B06000200190019800
:102D000020F00800083001900198B060059820F08C
:102D100010000590E1B22846FFF7F4FC5FE0FFE702
:102D20000598C0F3002048B305F1900050F8240046
:102D3000C0680190019820F00200801C019005F10C
:102D4000900050F824000199C16005F5457050F8D5
:102D50002410491C40F82410072178300155E1B2B5
:102D60002846FFF7CFFC00200190019820F48070E6
:102D700000F5807001900198B06030E00598C0F3D4
:102D8000802060B305F1900050F82400C0680190E5
:102D9000019820F00200801C019005F1900050F88D
:102DA00024000199C160E1B22846FFF7ABFC002086
:102DB0000190019820F01000103001900198B0604F
:102DC000082105F56370015500200190019820F459
:102DD000806000F5806001900198B06000BF0598A8
:102DE000C0F34020F8B105F1900050F82400C0680D
:102DF0000190019820F00200801C019005F19000E4
:102E000050F824000199C160E1B22846FFF77AFC2E
:102E100000200190019820F4007000F500700190EE
:102E20000198B06047E1059800F00100002871D0DA
:102E3000E878012812D105F1900050F824000069CB
:102E4000029005F56B7000EB441000690299C1F324
:102E50001201411A05F5547040F82410012105F5BE
:102E6000637001550021783840F82410002001904B
:102E7000019820F00100401C01900198B060039877
:102E8000C0F3814020B10398C0F3814002282AD1C9
:102E900005F1900050F82400C0680190019820F0DE
:102EA0000200801C019005F1900050F82400019967
:102EB000C160E1B22846FFF725FC0020019001988F
:102EC00020F01000103001900198B06005F56B7093
:102ED00000EB4410007E80F0010105F56B7000EB03
:102EE00044100176E7E00398C0F38140032899D1AC
:102EF000039820F0005000F10050039005F190007D
:102F000050F8240003990160012105F29B3001551E
:102F1000D1E0FFE70598C0F34000002856D005F146
:102F2000900050F82400C0680190019820F0020041
:102F3000019005F1900050F824000199C16005F559
:102F40006370005D012804D1012105F29B30015519
:102F500032E005F56370005D052804D1042105F217
:102F60009B30015528E005F56370005D062809D007
:102F700005F56370005D072804D005F56370005DFA
:102F8000082808D1002105F5457040F824100321D8
:102F90008730015510E00398C0F3814003280BD11E
:102FA00005F56B7000EB4410007E80F0010105F523
:102FB0006B7000EB4410017600200190019820F026
:102FC0000200801C01900198B06074E00598C0F385
:102FD000C01040B305F1900050F82400C068019083
:102FE000019820F00200801C019005F1900050F83B
:102FF00024000199C16005F5457050F82410491C62
:1030000040F82410062178300155E1B22846FFF738
:1030100079FB00200190019820F080008030019021
:103020000198B06047E00598C0F30010F0B3039832
:10303000C0F38140032815D105F1900050F8240019
:10304000C0680190019820F00200801C019005F1F9
:10305000900050F824000199C160E1B22846FFF7C2
:1030600051FB18E00398C0F3814020B10398C0F3EE
:10307000814002280FD1039820F0004000F1004069
:103080000390039820F08040039005F1900050F8E1
:10309000240003990160032105F5637001550020A8
:1030A0000190019820F01000103000E003E0019042
:1030B0000198B06000BF012006B070BD7FB5054625
:1030C0000C4605F1900050F82460B0680390F06859
:1030D0000290DDE902100840039005F1900050F8DD
:1030E0002400006801900398C0F38000D0B1002054
:1030F0000090009820F00400001D00900098B0603F
:1031000005F1900050F82400C0680090009820F06D
:103110000200801C009005F1900050F824000099F6
:10312000C160D4E10398C0F3401068B30198C0F3C4
:103130008140F8B905F56B7000EB4410007A032864
:1031400018D105F1900050F82400C0680090009854
:1031500020F00200801C009005F1900050F824003F
:103160000099C160E1B22846FFF7CCFA012105F5CC
:103170006370015500200090009820F0200020305E
:1031800000900098B060A2E10398C0F34020F8B12D
:1031900005F1900050F82400C0680090009820F0DD
:1031A0000200801C009005F1900050F82400009966
:1031B000C160E1B22846FFF7A5FA00200090009810
:1031C00020F4007000F5007000900098B0607EE17F
:1031D000039800F0010038B3002105F5457040F870
:1031E000241005F1900050F82400C0680090009869
:1031F00020F00200801C009005F1900050F824009F
:103200000099C160E1B22846FFF77CFA00200090E7
:10321000009820F00100401C00900098B06001214F
:1032200005F56370015552E10398C0F3C00010B377
:1032300000200090009820F00800083000900098CE
:10324000B06005F1900050F82400C068009000982C
:1032500020F00200801C009005F1900050F824003E
:103260000099C160E1B22846FFF74CFA052105F547
:10327000637001552BE10398C0F3001038B30021AF
:1032800005F5457040F8241005F1900050F8240031
:10329000C0680090009820F00200801C009005F1AA
:1032A000900050F824000099C160E1B22846FFF771
:1032B00029FA00200090009820F0100010300090B3
:1032C0000098B060032105F563700155FFE0039895
:1032D000C0F3C01040B305F1900050F82400C0685E
:1032E0000090009820F00200801C009005F19000F2
:1032F00050F824000099C160E1B22846FFF702FAB5
:1033000005F5457050F82410491C40F8241006219A
:103310007830015500200090009820F08000803027
:1033200000900098B060D2E00398C0F3801038B3EA
:10333000002105F5457040F8241005F1900050F883
:103340002400C0680090009820F00200801C0090CB
:1033500005F1900050F824000099C160E1B22846C0
:10336000FFF7D0F900200090009820F04000403096
:1033700000900098B060042105F563700155A6E047
:103380000398C0F3802060B305F1900050F824004A
:10339000C0680090009820F00200801C009005F1A9
:1033A000900050F824000099C160E1B22846FFF770
:1033B000A9F900200090009820F010001030009033
:1033C0000098B060082105F5637001550020009059
:1033D000009820F4806000F5806000900098B06054
:1033E00075E00398C0F34000002870D005F190000C
:1033F00050F82400C0680090009820F0020000906F
:1034000005F1900050F824000099C16005F5637043
:10341000005D012815D1012105F29B30015501986D
:10342000C0F38140022848D105F56B7000EB4410D1
:10343000407E80F0010105F56B7000EB4410417691
:103440003BE005F56370005D032804D1022105F21D
:103450009B30015531E005F56370005D04280FD104
:1034600005F56B7000EB44100079012803D1E1B23F
:103470002846FFF732F9022105F29B3001551CE086
:1034800005F56370005D052804D1042105F29B3029
:10349000015512E005F56370005D06280DD105F5B4
:1034A000457050F82400032807D1032105F29B3012
:1034B00001550021873840F8241000200090009822
:1034C00020F00200801C00900098B06000BF012036
:1034D00004B070BD7FB50446E068C06A00900198F2
:1034E000C0F3C30104F56B7000EB41100069C01C10
:1034F000C0F38F0673E04FF6FF71009801EA800574
:103500000198C0F3C30104F56B7000EB4110006932
:10351000A84215D20198C0F3C30104F56B7000EB0B
:103520004110008A85B200200390039820F020000B
:1035300020300390E068806903998843E1688861DE
:103540000198C0F3C30104F56B7000EB41100069F2
:10355000C01CC0F38F060198C0F3C302C0F3C303BD
:1035600004F56B7000EB43102B46C168204600F059
:1035700039FA0198C0F3C30104F56B7000EB4110F8
:10358000C06841190198C0F3C30204F56B7000EBE9
:103590004210C1600198C0F3C30104F56B7000EBE9
:1035A00041100069411B0198C0F3C30204F56B7020
:1035B00000EB421001610198C0F3C30104F56B7088
:1035C00000EB4110406941190198C0F3C30204F5B2
:1035D0006B7000EB42104161E068C06A0090009897
:1035E00080B2B0420ADD0198C0F3C30104F56B70EC
:1035F00000EB4110006900287FF47DAF012004B08A
:1036000070BD0000FEB50446002600250020009095
:1036100002900190D4F8CC0000680290D4F8CC005D
:1036200000680190019820F004000190019820F0BA
:1036300002000190019820F008000190019820F00C
:10364000200001900298C0F3400058B1019820F08A
:103650000200801C0190324800684168204688477B
:1036600045F001050298C0F3C000002842D001983F
:1036700020F00800083001900298C0F38000002874
:1036800038D0274800684168204688470298C0F330
:103690004140022804D00298C0F34140012828D1BB
:1036A0006069006800900298C0F34140022811D17F
:1036B00041F2707160694160009800F003000228D7
:1036C00018D0207A022803D102212046FFF77EF984
:1036D00001260FE04BF6803160694160009800F0F0
:1036E0000300012806D001212046FFF76FF90126CB
:1036F00000E001260298C0F3401030B1019820F09C
:1037000020002030019045F0010516B12046FFF75A
:1037100094F90199D4F8CC0001602846FEBD000060
:103720004C000020FEB504466069006900900198D5
:10373000C0F3C30104F56B7000EB41100069C01CBD
:10374000C0F38F0674E04FF6FF71009801EA800520
:103750000198C0F3C30104F56B7000EB41100069E0
:10376000A84216D20198C0F3C30104F56B7000EBB8
:103770004110008A85B200200290029820F08060FB
:1037800000F180600290E068806902998843E168F6
:1037900088610198C0F3C30104F56B7000EB411020
:1037A0000069C01CC0F38F060198C0F3C302C0F3C8
:1037B000C30304F56B7000EB43102B46C168204631
:1037C00000F010F90198C0F3C30104F56B7000EB31
:1037D0004110C06841190198C0F3C30204F56B7031
:1037E00000EB4210C1600198C0F3C30104F56B7097
:1037F00000EB41100069411B0198C0F3C30204F5BE
:103800006B7000EB421001610198C0F3C30104F535
:103810006B7000EB4110406941190198C0F3C3027D
:1038200004F56B7000EB4210416160690069009023
:10383000009880B2B0420ADD0198C0F3C30104F5DC
:103840006B7000EB4110006900287FF47CAF012011
:10385000FEBD30B585B0044600200090039003986B
:1038600020F0100010300390E068806903998843CD
:10387000E1688861E068006A0490049800F00F0035
:10388000009004F190009DF8001050F821000068AD
:1038900001900498C0F34340022806D0032878D052
:1038A000052877D0072873D175E00498C0F30A1073
:1038B000002869DD04F56B709DF8001000EB4110E5
:1038C000C068002860D00498C0F30A1204F56B7039
:1038D0009DF8003000EB4310C1682046FFF79DF8CB
:1038E000049800F00F0104F56B7000EB4110C06804
:1038F0000499C1F30A110144049800F00F0204F581
:103900006B7000EB4210C160049800F00F0104F5E9
:103910006B7000EB411040690499C1F30A11014436
:10392000049800F00F0204F56B7000EB4210416147
:1039300004F56B709DF8001000EB4110456904F52B
:1039400054709DF8001040F8215004F190009DF84B
:10395000001050F82100006902900298C0F3C9409D
:10396000002811DD019820F0004000F10040019096
:10397000019820F08040019004F190009DF8002013
:10398000019950F82200016006E002E002E0FFE742
:1039900000BF00BF00BF00BF00BF039820F01000B1
:1039A00010300390E068806903990843E1688861FA
:1039B000012005B030BD000038B50446002000905D
:1039C00007480068016820468847009820F00800F2
:1039D000083000900098E1684861012038BD00007F
:1039E0004C00002030B505460020EC78002C0CD1AE
:1039F000DB1C9B0805EB8202D2F8D02003E051F8D3
:103A0000045B1560641C9C42F9D330BDFEE70000E6
:103A100010B5044600202071401EE062204601F0EF
:103A2000C5FA08B1032010BD94F82E0294F82F12A5
:103A300040EA0120A0F52A41553901D0022010BDED
:103A400014F8660FE178627840EA0161A078663C7C
:103A5000000440EA022001430B48B0EB012F01D1E2
:103A6000002010BD14F8821FE278637841EA0261F9
:103A7000A278120442EA03221143B0EB012F01D1D4
:103A8000002010BD012010BD0046415400E0401C44
:103A900002780AB18A42FAD100787047426A121D50
:103AA0000068490A8078B1FBF0F002CA21B188426F
:103AB00004D211680844704700207047401A121D54
:103AC000F3E7891E4269921E8A4201D8002070479E
:103AD000826A807801FB0020704700002DE9F05FCA
:103AE00081460F46387820F04000401E00EB8001F0
:103AF00001EBC00400260125DFF85CA007F10108F6
:103B00004FF6FF7B1AF80600395C10F8080041EA0E
:103B100000207DB100F0DEFE0546FF2C07D22046D6
:103B2000641C39F8100000F0D5FEA84206D0002031
:103B3000BDE8F09F584501D00020F9E7761C0D2E16
:103B4000E0D33878400605D525B139F8140008B11E
:103B50000020EDE70120EBE7585400082DE9F04183
:103B600006460F46002F08D03946304601F00AF9C4
:103B7000022809D20120BDE8F081F56815B170690D
:103B8000A84207D8012505E0411CF4D071698142A3
:103B9000F1D83D462C46641C7069A04204D802242A
:103BA000022D01D20020E6E72146304601F0EAF876
:103BB00038B1411CDFD00128DDD0AC42EBD1002070
:103BC000D9E76FF070422146304601F0E4FA28B997
:103BD00027B122463946304601F0DDFA20B10128EE
:103BE0000DD001242046C6E7F4603069411CF9D0AD
:103BF000401E3061707940F001007071F2E74FF0C3
:103C0000FF34EFE72DE9F35F8846D8F8006000E065
:103C1000761C30782F28FBD05C28F9D00098D0F89B
:103C20001CA00024254628466D1C305C202808D3A3
:103C30002F2806D05C2804D0FF2C09D30620BDE82D
:103C4000FC9F7119C8F8001020282AD2042532E000
:103C5000C0B2A0F181017D290ED829466D1C715C8E
:103C6000A1F140023F2A04D3403A7F2A01D3062023
:103C7000E5E701EB002080B2012100F020FE0746BD
:103C800047B1802F08D2394665A0FFF7FFFE18B173
:103C90000620D4E70620D2E72046641C2AF81070DC
:103CA000C1E7002507E0601E3AF81000202801D087
:103CB0002E2802D1641E002CF5D154B100202AF820
:103CC000140000980B222021806901F067F9002779
:103CD00002E00620B3E77F1C3AF817002028FAD04C
:103CE0002E28F8D01FB145F0030500E0641E24B172
:103CF000601E3AF810002E28F8D14FF00008C14697
:103D00004FF0080B38467F1C3AF8106006B3202E9F
:103D100003D02E2E04D1A74202D045F00305F1E7CF
:103D2000D84501D2A74219D1BBF10B0F0ED0A74243
:103D300001D045F003050BD827464FF008084FF097
:103D40000B0B4FEA89604FEA1069DBE745F003058A
:103D5000009880690178E5293DD03EE0802E08D3A7
:103D6000304600F0B7FD002100F0A9FD064645F001
:103D70000205FF2E0FD9ABF10100804503D345F0BA
:103D80000305D846BEE70098310A8269404608F12B
:103D90000108115418E026B1314624A0FFF776FE41
:103DA00018B15F2645F003050EE0A6F14100192881
:103DB00002D849F0020907E0A6F16100192803D8EA
:103DC00049F00109203EB6B200988169404608F1E9
:103DD00001080E5496E705210170BBF1080F03D1CD
:103DE0004FEA89604FEA1069C9F38100032803D0C4
:103DF0006FEA0901890701D145F00205A90709D435
:103E000009F00301012901D145F01005012801D174
:103E100045F0080500988069C57200200FE7000092
:103E2000222A3A3C3E3F7C7F000000002B2C3B3D89
:103E30005B5D000010B504466FF00400FCF7B2FDB6
:103E40000649E008087000EB4002C2EBC0104FF6D4
:103E5000FF7202EAC000488010BD0000020000208E
:103E600070B54FF40775B0FBF5F1CCB2B0FBF5F1CE
:103E700005FB110604E0284600F026F8641EE4B2B3
:103E8000002CF8D1002E04D03046BDE8704000F080
:103E90001BB870BD0B49097848434FF0E0214861D9
:103EA00000238B61086940F0010008610869C207BE
:103EB00001D0C003FAD5086920F0010008618B61C8
:103EC00070470000020000200B49498848434FF02A
:103ED000E021486100238B61086940F0010008611E
:103EE0000869C20701D0C003FAD5086920F00100B3
:103EF00008618B61704700000200002070B5054624
:103F00000E460021284600F081F988B9002429696D
:103F1000286801F04BF858B969690978E5290BD090
:103F200051B100240121284600F06DF80028EED0A0
:103F3000042800D1072070BD641CB442F8D0F1E71A
:103F40002DE9F04704460021204600F05FF90028E3
:103F500057D1FF26B1464FF6FF7AA4F820A0216979
:103F6000206801F023F880465FEA080048D16769BD
:103F70003D7865B1F87A00F03F00E52D03D00107E8
:103F800008D50F2806D0FF26A4F820A030E04FF077
:103F9000040835E00F2801D0CEB11DE0E06938B348
:103FA000690606D597F80D9025F040052E46E18864
:103FB0002184B54208D1797B494505D13946FFF7BF
:103FC0008DFD08B1761E00E0FF26F6B210E03846FF
:103FD00001F097F9484513D0A169C87AC00704D108
:103FE0000B22384600F0C4FF50B1FF26A4F820A0F1
:103FF0000021204600F007F880465FEA0800AED0B6
:104000004046BDE8F0872DE9F04104460E46E788BA
:104010007F1C3804000C04D0206910B1390703D08C
:1040200067E00420BDE8F081401C2061E16831B107
:1040300020688278521E12EA171F06D059E02068C5
:104040000089B84255D80420ECE700F09BFE0546F5
:10405000012D01D80220E5E7681C14D020684169D1
:10406000A94240D88EB1E168FFF778FD05462800E7
:104070000DD0012D0DD0681C0DD0206801F0A8F9DD
:1040800058B10120CEE70120CCE70420CAE7072081
:10409000C8E70220C6E70120C4E720684FF4007299
:1040A0003030002100F07AFF29462068FFF709FD33
:1040B0002168C86200264FF001080CE080F80480F7
:1040C000206801F085F908B10120ABE72068C16ADA
:1040D000491CC162761C20688178B142EED8216803
:1040E000C96A891BC162E56029462068FFF7E9FCBF
:1040F0002061E78007F00F013022206802EB4111B8
:104100000844606100208DE72DE9FE430446A7695D
:10411000E6690C223946684600F037FF9DF80B002F
:10412000C00718D00020F872E06101252B46324606
:104130006946384600F0DAFD2046FFF701FF10B966
:104140006D1C642DF2D3642D0BD004280AD19DF888
:104150000B00F872E6619DF80B0080070ED5002079
:1041600003E00720BDE8FE83401C36F8101000294C
:10417000FAD119300D21B0FBF1F600E001263146ED
:104180002046FFF7BBFE054601271DBB761E21D04A
:10419000E088811B204600F039F80546280019D137
:1041A000A06901F0AEF880462169206800F0FEFEAB
:1041B00005467DB9F2B243466169E06900F02AFD27
:1041C0002068077100212046FFF71DFF05460DB945
:1041D000761EE9D1C5B92169206800F0E7FE0546E1
:1041E000280011D120220021606900F0D7FED4E917
:1041F00005010B2200F0C9FEA0696169C07A00F0D8
:1042000018000873206807712846ABE770B50446AC
:104210000D46E580A368012B03D0206841699942CF
:1042200001D8022070BD1BB90178032900D1436A6F
:1042300013B18078060118E00189A94201D8022053
:1042400070BD406A17E01946206800F09BFD0346E8
:10425000581C07D0022B03D320684069984203D82A
:10426000022070BD012070BDAD1BB542EBD21946D6
:104270002068FFF726FCE36060B100EB15102061B9
:1042800005F00F013022206802EB41110844606103
:10429000002070BD022070BD10B50021002802D0A2
:1042A000022803D0012141B1012010BDFDF7D2FF4A
:1042B00008B1002010BD012010BD002010BD00007D
:1042C0000346002B02D0022B01D00120704749B1D8
:1042D00001290FD04FF40070022905D0032906D020
:1042E0000420704700207047108000207047108025
:1042F00000207047024800681060002070470000EE
:10430000ACB2012070B50D46114604461A46002095
:10431000002A06D014B1022C05D0012038B10120AA
:1043200070BD042070BD2846FDF768FFF6E7002049
:1043300070BD0020704770B50D46114604461A4600
:104340000020002A06D014B1022C05D0012038B17B
:10435000012070BD042070BD2846FDF783FFF6E7FD
:10436000002070BD7CB50D4616460021009101AAC3
:10437000694600F050F800280AD1019B5C699B78DF
:10438000A41E5C4300994B436108296059083160C1
:104390007CBD000070B50024154D4FF40C763146FD
:1043A000002000F0DFFE45F8240018B1641CE4B2E0
:1043B000032CF4D34FF40A763146002000F0D2FEED
:1043C0000C4D28603146002000F0CCFE68604FF4B0
:1043D0000071002000F0C6FEA860032C06D12968F9
:1043E00021B1696811B108B1002070BD012070BD14
:1043F000100700201000002010B50446204600F0F1
:1044000011FA002806D1204601F00BF8002801D14E
:104410000021216010BD2DE9F74F8B461446002284
:104420006946204600F06CFA804626685FEA08007C
:104430005DD1D6E90409A9F10201884202D8CBF87E
:10444000000054E096F800A00025BAF1010F04D056
:10445000376A00200024B8B123E002242146304608
:1044600000F090FC411C03D0012804D030B106E0DC
:104470004FF0010834E04FF0020831E06D1C706924
:10448000641C8442EAD32BE039467F1C304600F09E
:104490008DFD80465FEA080022D106F130044FF41A
:1044A0000070BAF1020F0CD02178E278637841EA0B
:1044B0000261A278120442EA03221143090109D0E1
:1044C00009E02178627851EA022100D16D1CA41C18
:1044D000801E02E06D1C241D001FB9F10109BAD134
:1044E0003561707940F001007071CBF800504046A2
:1044F000BDE8FE8F17B581B014460298009068465B
:1045000000F0A8FC002802DA0B2004B010BD0B4B11
:1045100053F82010002201B10A700199002900D03F
:104520000A7043F8201001D0012C01D00020ECE7E4
:10453000002202A901A800F0E3F9E6E70407002041
:104540002DE9F74F8CB00646002E0FD04FF0000833
:10455000C6F8008002F01F0727F001020DA903A88A
:1045600000F0CEF90546280004D0A0E009200FB0E5
:10457000BDE8F08F4FF4007000F0A3F981465FEAC8
:1045800009000BD0CDF82890CDF824D003A80D99C0
:1045900000F076FB0546089C15B103E01120E6E724
:1045A00004B9062517F01C0F4CD04DB1042D03D1D2
:1045B00003A8FFF7A9FD054647F00807089C08E097
:1045C000E07A10F0110F01D0072502E0780700D53E
:1045D0000825B5BB380740D500F03AFCA073010AA6
:1045E000E173010C2174000E607484F80B8084F870
:1045F0001C8084F81D8084F81E8084F81F8021466A
:10460000039800F048FC82460021204600F071FE2D
:10461000039901200871BAF1000F1ED00398D0F859
:104620002CB0514600F032FE0546280015D1039803
:10463000AAF1010AC0F80CA05946039800F0B6FC94
:1046400005460AE04DB9E07AC10601D5042504E02B
:10465000B90702D5C00700D007253DB9380701D5F5
:1046600047F020070398C06AF0613462484600F0C2
:104670002CF9E5B9B77186F807802146039800F058
:104680000AFC3061207FE17F627F40EA0160A17F08
:10469000090441EA02210843F060C6F80880C6F820
:1046A0001880C6F8248003983060C088B0802846FF
:1046B0005DE72DE9F84F04460F4616469846002060
:1046C000C8F80000204600F0ACFE002812D1E079C6
:1046D00000280FD1A079C0070BD0D4E90210401AEE
:1046E000864200D9064604F128004FF001090090E7
:1046F00093E00720BDE8F88FA168C80575D1206850
:104700008278521E02EA512202F0FF0ABAF1000F2B
:1047100013D129B1626A2AB12046FFF7BFF904E03C
:10472000206902E0616900F02DFB022802D202201C
:10473000E071DFE7411C1CD0606161692068FFF710
:10474000C0F9D0B100EB0A0B750A55B320680AEB2B
:10475000050281788A4201D9A1EB0A0540782B46EF
:104760005A463946FFF7CEFD50B184F80790012034
:10477000C0E784F807900120BCE70220E071B9E7A8
:10478000A07940060BD5A069A0EB0B00A84206D289
:1047900007EB40204FF40072009900F0F6FB6D0229
:1047A00031E0A2695A451ED0A07940060ED5206896
:1047B000012300994078FFF7BEFD18B184F80790F7
:1047C000012097E7A07920F04000A0712068012324
:1047D0005A4640780099FFF795FD20B184F807907C
:1047E000012087E701E0C4F818B02089C0F3080071
:1047F000C0F50075B54200D93546011928312A4661
:10480000384600F0C2FB2F44A0682844A060D8F8C6
:1048100000002844C8F80000761B002E7FF46CAF1F
:10482000002067E770B50446204600F0FAFD002836
:104830000ED1A1798A060BD548060ED52068012332
:1048400004F128014078A269FFF775FD08B1012045
:1048500070BDA07920F04000A071E169206800F0EF
:10486000A5FB0028F4D1256AE87A40F02000E87220
:10487000207B2877A089000A6877E068000CA87779
:10488000E068000EE8772846216900F032FD00F06C
:10489000DFFAA875010AE975010C2976000E687621
:1048A0000020A874E874A07920F02000A07121688D
:1048B000012008712068BDE8704000F02FBD01465E
:1048C00070470146002000F04DBC0146002000F07A
:1048D0003DBC00000021084B00E0491C33F81120CA
:1048E0000AB18242F9D133F81120002A02D00348DC
:1048F00030F811007047000092540008725600080A
:104900002DE9FF478046084616460027C8F8007084
:1049100000F0A0FA0546280003D50B2004B0BDE83E
:10492000F087B84850F825408CB1C8F8004020788E
:1049300020B16078FFF7FDFCC1070AD02770E8B20C
:104940006070FFF7A9FCC1070AD00320E6E70C203E
:10495000E4E71EB1400701D50A20DFE70020DDE7CC
:104960001EB1400701D50A20D8E700252946204678
:10497000FFF74EF8012826D10021E84604EB01108C
:1049800000F5F770027952B1027AC37A42EA036203
:10499000837A407A1B0443EA0020024300E00022AD
:1049A00048F82120491C0429E8D3002658F826504D
:1049B00025B129462046FFF72BF800E0022010B170
:1049C000761C042EF2D3032802D018B10D20A5E7DF
:1049D0000120A3E794F83B0094F83C1040EA012042
:1049E000B0F5007F01D00D2098E794F8460094F8C8
:1049F000471040EA012058B914F8540FE178627862
:104A000040EA0160A1780904543C41EA02210843CC
:104A1000A06194F8409084F80390B9F1010F04D09C
:104A2000B9F1020F01D00D2078E709FB00F994F8E5
:104A30003D20A27012B1511E0A4201D00D206DE737
:104A400094F8411094F8423041EA03232381190776
:104A500001D00D2062E794F8431094F8446041EAD5
:104A6000062161B914F8501FE67894F801C041EAB4
:104A70000661A6783604503C46EA0C26314394F889
:104A80003E6094F83FC046EA0C28B8F1000F07D00A
:104A900008EB090606EB131C614503D20D203DE728
:104AA0000D203BE7A1EB0C01B1FBF2F139B301267C
:104AB00040F6F672914200D302264FF6F67291420A
:104AC00000D30326891C6161E56105EB08022262BF
:104AD000AC44C4F828C0032E13D033B34A446262F6
:104AE000022E24D001F0010201EB410102EB510141
:104AF00001F2FF11B0EB512F1BD20D200EE70D205C
:104B00000CE70BB10D2009E794F85C2094F85F30B6
:104B100094F85DC042EA036294F85E301B0443EAF5
:104B20000C231A4362628900E2E70D20F6E6490091
:104B3000DEE74FF0FF302061E06080206071032EDF
:104B400057D194F8600094F8611040EA01200128E0
:104B50004FD1691C204600F029FAE0BB677194F838
:104B60002E0294F82F1240EA0120A0F52A4155396F
:104B70003FD114F8300FE178627840EA0160A17803
:104B8000303C090441EA022108431F49884230D1E0
:104B900094F8140294F8171294F8152240EA016070
:104BA00094F81612090441EA022108431749884281
:104BB0001FD194F8180294F81B1294F8192240EAB5
:104BC000016094F81A12090441EA022108432061A5
:104BD00094F81C0200E00CE094F81F1294F81D22D7
:104BE00040EA016094F81E12090441EA02210843D8
:104BF000E060267006490888401C0880E08000209C
:104C00008CE600000407002052526141727241613B
:104C10000C0000202DE9F0434B730F23CB720023CF
:104C20000B738B76CB76531E03EB830404EBC30527
:104C300000231C46114E01F1010C4FF6FF77BB42D9
:104C400003D02B466D1C30F8133016F8048001F8A1
:104C5000083016F804904FEA132809F80C8003B9BD
:104C60003B46641C0D2CEAD3BB4202D030F8150041
:104C700008B942F040020A70BDE8F08358540008B9
:104C800073B50446019908782F2801D05C2801D11A
:104C9000491C01910025A56001980078202805D2C3
:104CA00000212046FFF7B2FA65617CBD01A92046CC
:104CB000FEF7A8FF0028F8D12046FFF741F9A169C7
:104CC000C97A28B10428F0D14907EED405207CBD6B
:104CD0004907FCD46169C87AC00601D405207CBDAF
:104CE000206800F0D8F8A060E0E700007CB5054639
:104CF00016461C460B22284600F047F9052C11D910
:104D00001F480CE0B61C002322460C4662F35F04E9
:104D10004908E20300D544405B1C102BF4D33188D2
:104D20000029EFD107226B4604F00F0130313929F9
:104D300001D9C91DC9B21046521E19542409002CAC
:104D4000F2D17E2098540021541E06E081387D283F
:104D500002D8A14206D0491C491C914202D2685C8B
:104D60002028F3D1082A03D21046521C185C00E018
:104D700020200C46491C28550829F3D37CBD00008F
:104D8000211001002DE9F04104460D46022D02D309
:104D90006069A84202D80120BDE8F081207801288E
:104DA00005D0022827D0032835D00120F4E705EBF1
:104DB0005506206A00EB5621204600F0F7F888BB24
:104DC000C6F30800204490F83070761C206A00EB8F
:104DD0005621204600F0EAF820BBC6F30800204424
:104DE00090F8300047EA0020E90701D00009D3E736
:104DF000C0F30B00D0E7206A00EB1521204600F03D
:104E0000D5F878B9E8B204EB40003030017840784A
:104E100041EA0020C0E7206A00EBD511204600F0EF
:104E2000C5F810B14FF0FF30B6E740F2FF1000EACE
:104E30008500204430300178C27841EA02618278EE
:104E40004078120442EA0020014321F07040A3E7B9
:104E50000020704710B504464FF0FF302368002B48
:104E60000BD0194600E0491C0A78202A01D33A2ABF
:104E7000F9D10A783A2A01D0002010BD13F8012B8D
:104E8000303A0A2AF9D28B42F7D1032AF5D21046DA
:104E9000491C216010BD0246887ECB7E40EA03207B
:104EA0001278032A05D10A7D497D42EA012140EAB0
:104EB0000140704708B54FF4A060FBF7D9FCA8206B
:104EC000FEF7B8FFFBF7DCFAFBF77CFC002000F0F4
:104ED000B5F8FFF75FFA1E4801221EA18068FFF7B0
:104EE00009FB1D4C4FF480412046FBF790FBA114B9
:104EF0002046FBF78EFB4FF400512046FBF789FB61
:104F00001648184A0090164B012102F18400FCF764
:104F100005FAFBF757FD0546134C4FF4FA670126D7
:104F20000AE0104901F18400FDF77AF8FBF74AFD29
:104F3000401BB84200D9267020780028F1D0FBF73A
:104F400097FAFBF70BFC0948FBF71AFCFEE7000099
:104F500010070020323A0000000C024084000020BC
:104F600070000020D4000020010000200080000814
:104F700010B50023521E541C05D010F8013B11F847
:104F8000014B1B1BF6D0184610BD03E011F8013B86
:104F900000F8013B521E531CF8D17047C9B201E022
:104FA00000F8011B521E531CFAD1704770B504461D
:104FB0000D46E06AA84210D0204600F009FA08B178
:104FC000012070BD607801232A4604F13001FFF70B
:104FD00099F908B1012070BDE562002070BD0000A4
:104FE00070B5144A131893F82030002B12D0124BCE
:104FF00053F820308B421AD90F4B0C3B53F820301A
:10500000B1FBF3F102EB8002506930F8113000205F
:10501000002408E011688847012070BD55690E180A
:1050200025F81640401C9842F8DB002070BD022095
:1050300070BD00001C0000206C58000870B50446CC
:105040000B480C4E002150F8240006EB840542006A
:10505000686900F099F806480021183050F82420BB
:10506000A86800F091F80120311981F8200070BD86
:10507000545800081C0000202DE9F04105460F4659
:105080000024DFF8888008EB050090F82000002855
:1050900003D1D8F80010284688474FF0FF32FFB1FF
:1050A0001B4E56F82500B7FBF0F3B7FBF0F100FB01
:1050B000117000B15B1C16480C3850F82510491EC1
:1050C000002921DB08EB8507786930F811C0BCF1B5
:1050D000000F08D000249C4213D1002298B20AE0AD
:1050E0001046BDE8F081641CF5E77C6901EB020C19
:1050F00024F81C00521C9A42F7D356F82500484366
:10510000EFE7491E0029E0DA1046EAE71C0000201C
:105110006058000810B5002200210A4B0A4C53F8D1
:10512000203004EB800005E0446934F8114004B1FC
:10513000521C491C8B42F7D864204243B2FBF3F067
:10514000C0B210BD545800081C000020002906D031
:10515000034A02EB80029268891AFFF741BF704749
:105160001C00002010B504462046FFF785FF411CB7
:1051700005D0044901EB84018968084410BD002072
:1051800010BD00001C00002001E000F8011B521EB1
:10519000531CFAD170472DE9F04704460D461646D8
:1051A000022D02D36069A84202D80220BDE8F08730
:1051B000207806F0FF094FF00108012807D00228E7
:1051C00037D0032846D0022084F80480EEE705EBB0
:1051D0005507206A00EB57212046FFF7E7FE00281D
:1051E000F2D1C7F3080020443030E90703D001783A
:1051F00069F31F1100E0314601707F1C84F80480C0
:10520000206A00EB57212046FFF7D0FE0028DBD1B3
:10521000C7F3080121443031EA0702D0C6F3071270
:1052200005E00A78C6F3032302F0F0021A430A707D
:10523000CAE7206A00EB15212046FFF7B7FE0028D9
:10524000C2D1E9B204EB410181F83090320A81F811
:105250003120B9E7206A00EBD5112046FFF7A6FE02
:105260000028B1D140F2FF1101EA8501214430311B
:105270004FF07043CA7803EA026232430A70130A9D
:105280004B70130C8B70120ECA709DE72DE9F04124
:1052900004460F46022F02D36069B84201D80226A5
:1052A00024E000261FE039462046FFF76BFD054647
:1052B000E5B1012D09D0681C09D0002239462046ED
:1052C000FFF769FF06468EB903E002260EE00126CD
:1052D0000CE02069411C05D0401C2061607940F041
:1052E000010060712F466069B842DCD83046BDE8E5
:1052F000F08181760A0AC2760A0C0275090E4175A0
:105300007047014600200B22430803EBC01011F840
:10531000013B1844C0B2521EF6D1704770B5044626
:10532000204600F055F8054628004FD12078032884
:1053300045D16079012842D1420204F130000021B8
:105340000646FFF72BFE552084F82E02AA2084F88B
:105350002F02522084F8300084F83100612184F853
:105360003210412084F83300722284F8142284F829
:10537000152284F8160284F81712206984F818029E
:10538000010A84F81912010C84F81A12000E84F82C
:105390001B02E06884F81C02010A84F81D12010C4B
:1053A00084F81E12000E84F81F02E269521CE262A9
:1053B000607801233146FEF7BEFF002060710022B5
:1053C00060781146FEF77CFF00B10125284670BDCC
:1053D0002DE9F04104462079002820D0E66A04F146
:1053E00030016078012332460F46FEF7A4FF10B16A
:1053F0000120BDE8F08100202071206AA169301AE7
:1054000088420CD2E57808E0A06906446078012360
:1054100032463946FEF78FFF6D1E022DF4D2002072
:10542000E7E710B5002807D0016829B10A781AB15A
:10543000CA888088824201D0092010BD4878FEF7D2
:1054400078FFC00701D0032010BD002010BD4FF031
:105450004070E1EE100A704701030507090E1012B3
:105460001416181C1E0000040002000180004000F9
:10547000200010000800040002000000008000402E
:105480000020001000080040002000100008000468
:10549000000261006200630064006500660067004E
:1054A000680069006A006B006C006D006E006F00A0
:1054B0007000710072007300740075007600770050
:1054C000780079007A00A100A200A300A500AC003A
:1054D000AF00E000E100E200E300E400E500E600E8
:1054E000E700E800E900EA00EB00EC00ED00EE0068
:1054F000EF00F000F100F200F300F400F500F60018
:10550000F800F900FA00FB00FC00FD00FE00FF00BF
:10551000010103010501070109010B010D010F0143
:10552000110113011501170119011B011D011F01B3
:10553000210123012501270129012B012D012F0123
:1055400031013301350137013A013C013E0140018F
:1055500042014401460148014B014D014F015101F7
:1055600053015501570159015B015D015F01610163
:1055700063016501670169016B016D016F017101D3
:105580007301750177017A017C017E019201B103FB
:10559000B203B303B403B503B603B703B803B90347
:1055A000BA03BB03BC03BD03BE03BF03C003C103F7
:1055B000C303C403C503C603C703C803C903CA039F
:1055C000300431043204330434043504360437041F
:1055D000380439043A043B043C043D043E043F04CF
:1055E000400441044204430444044504460447047F
:1055F000480449044A044B044C044D044E044F042F
:1056000051045204530454045504560457045804D6
:1056100059045A045B045C045E045F047021712128
:1056200072217321742175217621772178217921C6
:105630007A217B217C217D217E217F2141FF42FF38
:1056400043FF44FF45FF46FF47FF48FF49FF4AFF2E
:105650004BFF4CFF4DFF4EFF4FFF50FF51FF52FFDE
:1056600053FF54FF55FF56FF57FF58FF59FF5AFF8E
:10567000000041004200430044004500460047004E
:10568000480049004A004B004C004D004E004F00BE
:10569000500051005200530054005500560057006E
:1056A000580059005A002100E0FFE1FFE5FFE2FF4A
:1056B000E3FFC000C100C200C300C400C500C600B3
:1056C000C700C800C900CA00CB00CC00CD00CE0086
:1056D000CF00D000D100D200D300D400D500D60036
:1056E000D800D900DA00DB00DC00DD00DE00780144
:1056F000000102010401060108010A010C010E016A
:10570000100112011401160118011A011C011E01D9
:10571000200122012401260128012A012C012E0149
:10572000300132013401360139013B013D013F01B5
:1057300041014301450147014A014C014E0150011D
:1057400052015401560158015A015C015E01600189
:1057500062016401660168016A016C016E017001F9
:1057600072017401760179017B017D019101910340
:105770009203930394039503960397039803990365
:105780009A039B039C039D039E039F03A003A10315
:10579000A303A403A503A603A703A803A903AA03BD
:1057A000100411041204130414041504160417043D
:1057B000180419041A041B041C041D041E041F04ED
:1057C000200421042204230424042504260427049D
:1057D000280429042A042B042C042D042E042F044D
:1057E0000104020403040404050406040704080475
:1057F00009040A040B040C040E040F046021612147
:105800006221632164216521662167216821692164
:105810006A216B216C216D216E216F2121FF22FFF6
:1058200023FF24FF25FF26FF27FF28FF29FF2AFF4C
:105830002BFF2CFF2DFF2EFF2FFF30FF31FF32FFFC
:1058400033FF34FF35FF36FF37FF38FF39FF3AFFAC
:1058500000000000800C00000078000080070000BD
:105860002000000020000000200000000090010047
:1058700000000F0000F00000323A53686174616E5E
:10588000672E42494E000000A85800080000002082
:10589000D4000000C40100087C590008D400002096
:1058A0004CBC0100E0010008000000000000000006
:1058B00000000000000000000000000000000000E8
:1058C000000000003D50000815510008200700208E
:1058D00000000068000000102097012000000F6801
:1058E00000F0001000000000B3210008A90C00081F
:1058F000D10D000840000020000000000000000062
:105900000000000000000000000000000000000097
:105910000000000000000000A91800086D18000831
:10592000B51300087914000803000000F5220008F0
:10593000C1220008D12200083F230008E12200080C
:105940003B230008EF220008F1220008CD220008C6
:10595000BD220008392300083D2300084123000828
:10596000F32200084523000805230008ED22000863
:0C597000432300080000000078580008E5
:040000050800018965
:00000001FF
